S0130000564C35336C30785F322E302E7372656304
S113000012C024C023C022C021C020C01FC01EC0F3
S11300101DC01CC01BC01AC019C018C017C016C010
S113002015C014C013C011241FBECFE5D4E0DEBF39
S1130030CDBF10E0A0E6B0E0EAE1F3E002C0059035
S11300400D92AA36B107D9F719D165C1D9CF87B3B3
S1130050826087BB87B3816087BB88B3826088BBBB
S113006088B3816088BB82E08A95F1F788B38E7F7C
S113007088BB88B38D7F88BB82E08A95F1F70895A9
S113008087B3826087BB87B3816087BB88B38D7F6A
S113009088BB88B38E7F88BB82E08A95F1F788B3EA
S11300A0826088BB88B3816088BB82E08A95F1F75F
S11300B0089590E0983060F528B32D7F28BB22E0A6
S11300C02A95F1F721E030E0092E02C0220F331FF8
S11300D00A94E2F7482F50E024233523092E02C066
S11300E0359527950A94E2F7232B21F028B3216054
S11300F028BB03C028B32E7F28BB22E02A95F1F742
S113010028B3226028BB22E02A95F1F79F5FD2CF63
S113011088B38D7F88BB82E08A95F1F788B38260CB
S113012088BB22E02A95F1F708950F931F93CF938C
S1130130DF93082F162FD42FC22F89DF89E8B9DF68
S113014086DF80E4B6DF9CDF82DF80ECB2DF802FC5
S1130150B0DF812FAEDF8D2FACDF8C2FAADF90DFD5
S1130160DF91CF911F910F910895EF92FF920F931A
S11301701F93CF93DF937C01EAE0F0E0BF01A4D0AA
S11301809C01C4E6D0E0C701BE019ED0821B930B44
S1130190BF019AD0FB0108EE13E0C701B80194D067
S11301A08E1B9F0B821B930BBE018ED0EB01C701EC
S11301B060E177E289D08C1B9D0B8E1B9F0B821B09
S11301C0930BB80181D0D901A05ABF4F2C91E05AAA
S11301D0FF4F4081C05ADF4F8881FB01E05AFF4F37
S11301E0682F8081A2DFDF91CF911F910F91FF9043
S11301F0EF90089511B880E280B9089584EA86BF2B
S113020006B607FEFDCF089584E986BF089583B935
S113021084E886BF06B607FEFDCF089584EC86BF4A
S113022006B607FEFDCF83B1089584E886BF06B6FF
S113023007FEFDCF83B10895FC01208121110EC07A
S11302402181243119F080E090E002C08AE090E03E
S1130250223360F0822F90E04E970895FC01818153
S113026090E0F8EC2F9F800D911D112408958617BE
S113027010F0861B0895681B862F0895CF93DF9393
S113028000D0CDB7DEB7B6DFB9DF82E5C0DF80E0EE
S1130290BEDF81E0BCDFB8DFB1DF82E5B8DF8EE12D
S11302A0B6DFACDF83E5B3DFB9DF8983BEDF182FA8
S11302B0682F8A81DCDF863008F01A83CE0101962C
S11302C0BBDF53DFA1DFE0CF97FB072E16F40094CA
S11302D006D077FD08D00BD007FC05D03EF49095EE
S11302E081959F4F0895709561957F4F0895AA1B3E
S11302F0BB1B51E107C0AA1FBB1FA617B70710F00D
S1130300A61BB70B881F991F5A95A9F7809590953E
S10D0310BC01CD010895F894FFCF5D
S10D031A3F065B4F666D7D077F6FA1
S9030000FC
